{"abi":[{"type":"function","name":"deployProxy","inputs":[{"name":"implementation","type":"address","internalType":"address"},{"name":"initData","type":"bytes","internalType":"bytes"},{"name":"salt","type":"bytes32","internalType":"bytes32"}],"outputs":[{"name":"proxy","type":"address","internalType":"address"}],"stateMutability":"nonpayable"},{"type":"function","name":"deployProxyWithAutoSalt","inputs":[{"name":"implementation","type":"address","internalType":"address"},{"name":"initData","type":"bytes","internalType":"bytes"}],"outputs":[{"name":"proxy","type":"address","internalType":"address"}],"stateMutability":"nonpayable"},{"type":"function","name":"isProxyDeployed","inputs":[{"name":"implementation","type":"address","internalType":"address"},{"name":"initData","type":"bytes","internalType":"bytes"},{"name":"salt","type":"bytes32","internalType":"bytes32"}],"outputs":[{"name":"isDeployed","type":"bool","internalType":"bool"}],"stateMutability":"view"},{"type":"function","name":"predictProxyAddress","inputs":[{"name":"implementation","type":"address","internalType":"address"},{"name":"initData","type":"bytes","internalType":"bytes"},{"name":"salt","type":"bytes32","internalType":"bytes32"}],"outputs":[{"name":"predicted","type":"address","internalType":"address"}],"stateMutability":"view"},{"type":"event","name":"ProxyDeployed","inputs":[{"name":"deployer","type":"address","indexed":true,"internalType":"address"},{"name":"proxy","type":"address","indexed":true,"internalType":"address"},{"name":"implementation","type":"address","indexed":true,"internalType":"address"},{"name":"salt","type":"bytes32","indexed":false,"internalType":"bytes32"}],"anonymous":false},{"type":"error","name":"InvalidImplementation","inputs":[]},{"type":"error","name":"InvalidInitData","inputs":[]},{"type":"error","name":"NotUUPSImplementation","inputs":[]},{"type":"error","name":"ProxyAlreadyExists","inputs":[]},{"type":"error","name":"ProxyDeployFailed","inputs":[]}],"bytecode":{"object":"0x60808060405234601557610932908161001a8239f35b5f80fdfe60806040526004361015610011575f80fd5b5f3560e01c80630fc05fbf1461018657806360a1f85e1461016a57806399a7159e146100705763efd9063014610045575f80fd5b3461006c576020610061610058366101c7565b92919091610309565b3b1515604051908152f35b5f80fd5b3461006c5760407ffffffffffffffffffffffffffffffffffffffffffffffffffffffffffffffffc36011261006c5760043573ffffffffffffffffffffffffffffffffffffffff8116810361006c5760243567ffffffffffffffff811161006c576020916100e561014c923690600401610199565b90604051858101907fffffffffffffffffffffffffffffffffffffffff0000000000000000000000008560601b16825283836034830137610143603480838781013360601b838201524260488201520301601481018452018261023a565b5190209261042f565b73ffffffffffffffffffffffffffffffffffffffff60405191168152f35b3461006c57602061014c61017d366101c7565b9291909161042f565b3461006c57602061014c610058366101c7565b9181601f8401121561006c5782359167ffffffffffffffff831161006c576020838186019501011161006c57565b9060607ffffffffffffffffffffffffffffffffffffffffffffffffffffffffffffffffc83011261006c5760043573ffffffffffffffffffffffffffffffffffffffff8116810361006c57916024359067ffffffffffffffff821161006c5761023291600401610199565b909160443590565b90601f7fffffffffffffffffffffffffffffffffffffffffffffffffffffffffffffffe0910116810190811067ffffffffffffffff82111761027b57604052565b7f4e487b71000000000000000000000000000000000000000000000000000000005f52604160045260245ffd5b9183606094601f9273ffffffffffffffffffffffffffffffffffffffff7fffffffffffffffffffffffffffffffffffffffffffffffffffffffffffffffe09516865260406020870152816040870152868601375f8582860101520116010190565b916103d773ffffffffffffffffffffffffffffffffffffffff9493602061027f916103886040519661033d8486018961023a565b848852838801946106a7863961035c60405197889286840195866102a8565b037fffffffffffffffffffffffffffffffffffffffffffffffffffffffffffffffe0810187528661023a565b60405194859383850197518091895e840190838201905f8252519283915e01015f8152037fffffffffffffffffffffffffffffffffffffffffffffffffffffffffffffffe0810183528261023a565b5190206040519060208201927fff0000000000000000000000000000000000000000000000000000000000000084523060601b6021840152603583015260558201526055815261042860758261023a565b5190201690565b909193929373ffffffffffffffffffffffffffffffffffffffff821692831580156105eb575b6105c3576004821061059b5761046a836105f4565b156105735761047b86838386610309565b3b61054b576040519161027f908184019284841067ffffffffffffffff85111761027b57889585946104b1946106a787396102a8565b03905ff580156105405773ffffffffffffffffffffffffffffffffffffffff169283158015610537575b61050f5783906040519081527fb2215f4e59f1492f4495eb876765846b2971aef83f9512b11fe37a307c6a14cd60203392a4565b7fbe554e90000000000000000000000000000000000000000000000000000000005f5260045ffd5b50833b156104db565b6040513d5f823e3d90fd5b7f724a7893000000000000000000000000000000000000000000000000000000005f5260045ffd5b7f605fc2e6000000000000000000000000000000000000000000000000000000005f5260045ffd5b7ff9c42c60000000000000000000000000000000000000000000000000000000005f5260045ffd5b7f68155f9a000000000000000000000000000000000000000000000000000000005f5260045ffd5b50823b15610455565b602073ffffffffffffffffffffffffffffffffffffffff916004604051809481937f52d1902d000000000000000000000000000000000000000000000000000000008352165afa5f9181610672575b5061064d57505f90565b7f360894a13ba1a3210667c828492db98dca3e2076cc3735a920a3ca505d382bbc1490565b9091506020813d60201161069e575b8161068e6020938361023a565b8101031261006c5751905f610643565b3d915061068156fe608060405261027f8038038061001481610168565b92833981016040828203126101645781516001600160a01b03811692909190838303610164576020810151906001600160401b03821161016457019281601f8501121561016457835161006e610069826101a1565b610168565b9481865260208601936020838301011161016457815f926020809301865e86010152823b15610152577f360894a13ba1a3210667c828492db98dca3e2076cc3735a920a3ca505d382bbc80546001600160a01b031916821790557fbc7cd75a20ee27fd9adebab32041f755214dbc6bffa90cc0225b39da2e5c2d3b5f80a282511561013a575f8091610122945190845af43d15610132573d91610113610069846101a1565b9283523d5f602085013e6101bc565b505b6040516064908161021b8239f35b6060916101bc565b50505034156101245763b398979f60e01b5f5260045ffd5b634c9c8ce360e01b5f5260045260245ffd5b5f80fd5b6040519190601f01601f191682016001600160401b0381118382101761018d57604052565b634e487b7160e01b5f52604160045260245ffd5b6001600160401b03811161018d57601f01601f191660200190565b906101e057508051156101d157805190602001fd5b63d6bda27560e01b5f5260045ffd5b81511580610211575b6101f1575090565b639996b31560e01b5f9081526001600160a01b0391909116600452602490fd5b50803b156101e956fe60806040525f8073ffffffffffffffffffffffffffffffffffffffff7f360894a13ba1a3210667c828492db98dca3e2076cc3735a920a3ca505d382bbc5416368280378136915af43d5f803e156053573d5ff35b3d5ffdfea164736f6c634300081c000aa164736f6c634300081c000a","linkReferences":{}},"methodIdentifiers":{"deployProxy(address,bytes,bytes32)":"60a1f85e","deployProxyWithAutoSalt(address,bytes)":"99a7159e","isProxyDeployed(address,bytes,bytes32)":"efd90630","predictProxyAddress(address,bytes,bytes32)":"0fc05fbf"},"id":36}